:100000000C9453000C94DA030C94B3030C947B000F
:100010000C947B000C947B000C947B000C947B0074
:100020000C947B000C947B000C947B000C947B0064
:100030000C947B000C947B000C947B000C947B0054
:100040000C9469030C947B000C9437030C941103FB
:100050000C947B000C947B000C947B000C947B0034
:100060000C947B000C947B0000000000250028000D
:100070002B0000000000240027002A0004040404D0
:100080000404040402020202020203030303030342
:10009000010204081020408001020408102001021F
:1000A00004081020D90511241FBECFEFD8E0DEBF11
:1000B000CDBF11E0A0E0B1E0E4E6F1E102C00590BF
:1000C0000D92A634B107D9F721E0A6E4B1E001C052
:1000D0001D92A93FB207E1F710E0C3E5D0E004C0EC
:1000E0002197FE010E949608C235D107C9F70E94E8
:1000F00001040C94B0080C940000CF92DF92EF92B0
:10010000FF920F931F93CF93DF936C017A018B01C2
:10011000C0E0D0E0CE15DF0581F0D8016D918D01F2
:10012000D601ED91FC910190F081E02DC601099579
:10013000892B11F02196EECF7E01C701DF91CF917F
:100140001F910F91FF90EF90DF90CF900895089549
:1001500080E090E00895FC01538D448D252F30E020
:10016000842F90E0821B930B541710F0CF960895C4
:1001700001970895FC01918D828D981761F0828D11
:10018000DF01A80FB11D5D968C91928D9F5F9F73CB
:10019000928F90E008958FEF9FEF0895FC01918D6D
:1001A000828D981731F0828DE80FF11D858D90E0DA
:1001B00008958FEF9FEF0895FC01918D228D892F77
:1001C00090E0805C9F4F821B91098F73992708955F
:1001D0008CE591E00E94DC0021E0892B09F420E00D
:1001E000822F0895FC01848DDF01A80FB11DA35A51
:1001F000BF4F2C91848D90E001968F739927848F47
:10020000A689B7892C93A089B1898C918370806469
:100210008C93938D848D981306C00288F389E02D0A
:1002200080818F7D80830895EF92FF920F931F93BB
:10023000CF93DF93EC0181E0888F9B8D8C8D981399
:1002400005C0E889F989808185FD26C0F62E0B8DD1
:1002500010E00F5F1F4F0F731127E02E8C8DE812F7
:100260000CC00FB607FCFACFE889F989808185FFB9
:10027000F5CFCE010E94F200F1CF8B8DFE01E80F89
:10028000F11DE35AFF4FF0829FB7F8940B8FEA8974
:10029000FB89808180620AC09FB7F894EE89FF894C
:1002A0006083E889F98980818370806480839FBF3F
:1002B00081E090E0DF91CF911F910F91FF90EF903F
:1002C0000895CF93DF93EC01888D8823C9F0EA89E4
:1002D000FB89808185FD05C0A889B9898C9186FD3F
:1002E0000FC00FB607FCF5CF808185FFF2CFA8893C
:1002F000B9898C9185FFEDCFCE010E94F200E7CF46
:10030000DF91CF91089580E090E0892B29F00E9441
:10031000E80081110C94000008953FB7F894809193
:10032000570190915801A0915901B0915A0126B5F9
:10033000A89B05C02F3F19F00196A11DB11D3FBF1D
:10034000BA2FA92F982F8827820F911DA11DB11DAB
:10035000BC01CD0142E0660F771F881F991F4A95A7
:10036000D1F708954F925F926F927F928F929F92F2
:10037000AF92BF92CF92DF92EF92FF92CF93DF9333
:10038000CDB7DEB760970FB6F894DEBF0FBECDBF16
:10039000289AC0904E01D0904F01E0905001F0900B
:1003A0005101C0924A01D0924B01E0924C01F0926F
:1003B0004D010E948D0160934E0170934F01809317
:1003C0005001909351019B01AC012C193D094E093C
:1003D0005F0969017A01DA01C90185569109A1090C
:1003E000B1098B319448AE41B10508F0EFC080915E
:1003F000080190910901A0910A01B0910B01898334
:100400009A83AB83BC8380930C0190930D01A093DE
:100410000E01B0930F01209104013091050140912C
:100420000601509107012D833E834F835887209307
:1004300008013093090140930A0150930B01809108
:10044000000190910101A0910201B09103018987FF
:100450009A87AB87BC878093040190930501A09392
:100460000601B0930701C0920001D0920101E09211
:100470000201F092030180901C0190901D01A09058
:100480001E01B0901F018092200190922101A09244
:100490002201B09223014090180150901901609000
:1004A0001A0170901B0140921C0150921D01609234
:1004B0001E0170921F01209114013091150140918D
:1004C00016015091170120931801309319014093A0
:1004D0001A0150931B01A2E0B4E00E9483086D87CB
:1004E0007E878F87988BA5EEB2E0A30192010E94D0
:1004F00083084D845E846F847888461A570A680A98
:10050000790AA7E4BFEFA50194010E949108530165
:100510004201861A970AA80AB90AA5E0B0E0A70125
:1005200096010E948308860E971EA81EB91E898513
:100530009A85AB85BC8524E0880F991FAA1FBB1F35
:100540002A95D1F7880E991EAA1EBB1E8D819E8109
:10055000AF81B88534E0880F991FAA1FBB1F3A9559
:10056000D1F7880E991EAA1EBB1EA5E0B0E0298116
:100570003A814B815C810E948308680D791D8A1D38
:100580009B1D20E032E040E050E00E946408209390
:100590001401309315014093160150931701809177
:1005A000460190914701A0914801B09149018C0DFD
:1005B0009D1DAE1DBF1D8093460190934701A093E2
:1005C0004801B093490181E080935B0128986096CF
:1005D0000FB6F894DEBF0FBECDBFDF91CF91FF9075
:1005E000EF90DF90CF90BF90AF909F908F907F90D3
:1005F0006F905F904F9008950895009769F0FC0107
:1006000001900020E9F73197AF01481B590BBC015D
:100610008CE591E00C947D0080E090E008950E94CC
:10062000AB081F920F920FB60F9211242F933F9396
:100630004F935F936F937F938F939F93AF93BF93EA
:10064000EF93FF938CE591E00E94F200FF91EF9110
:10065000BF91AF919F918F917F916F915F914F91DA
:100660003F912F910F900FBE0F901F9018951F92E2
:100670000F920FB60F9211242F938F939F93EF93A6
:10068000FF93E0916C01F0916D018081E091720126
:10069000F091730182FD12C09081809175018F5F8E
:1006A0008F7320917601821751F0E0917501F0E08F
:1006B000E45AFE4F958F8093750101C08081FF91B0
:1006C000EF919F918F912F910F900FBE0F901F90E0
:1006D00018951F920F920FB60F9211242F933F93EC
:1006E0008F939F93AF93BF93809153019091540147
:1006F000A0915501B09156013091520123E0230F92
:100700002D3720F40196A11DB11D05C026E8230F49
:100710000296A11DB11D2093520180935301909325
:100720005401A0935501B0935601809157019091C7
:100730005801A0915901B0915A010196A11DB11D16
:100740008093570190935801A0935901B0935A0197
:10075000BF91AF919F918F913F912F910F900FBEBD
:100760000F901F9018951F920F920FB60F921124A1
:100770002F933F934F935F936F937F938F939F93A9
:10078000AF93BF93EF93FF93E0911201F0911301A8
:100790000995FF91EF91BF91AF919F918F917F91BB
:1007A0006F915F914F913F912F910F900FBE0F90DE
:1007B0001F9018951F920F920FB60F9211242F932E
:1007C0003F934F935F936F937F938F939F93AF93D9
:1007D000BF93EF93FF93E0911001F0911101099500
:1007E000FF91EF91BF91AF919F918F917F916F9109
:1007F0005F914F913F912F910F900FBE0F901F90DF
:100800001895CF93DF93CDB7DEB7A1970FB6F894C5
:10081000DEBF0FBECDBF789484B5826084BD84B541
:10082000816084BD85B5826085BD85B5816085BDEB
:1008300080916E00816080936E00109281008091A3
:10084000810082608093810080918100816080932B
:100850008100809180008160809380008091B10050
:1008600084608093B1008091B00081608093B0007B
:1008700080917A00846080937A0080917A0082600F
:1008800080937A0080917A00816080937A008091D1
:100890007A00806880937A001092C100E0916C0128
:1008A000F0916D0182E08083E0916801F09169012F
:1008B0001082E0916A01F0916B018FEC80831092BD
:1008C0007401E0917001F091710186E08083E09104
:1008D0006E01F0916F01808180618083E0916E01F3
:1008E000F0916F01808188608083E0916E01F091CA
:1008F0006F01808180688083E0916E01F0916F01CB
:1009000080818F7D8083E2E9F0E02491EEE7F0E0E2
:1009100084918823C9F090E0880F991FFC01EE585C
:10092000FF4F45915491FC01E859FF4FA591B491B7
:100930009FB7F894FA0180812095822380838C915F
:10094000E22FE823EC939FBFE8E9F0E02491E4E88C
:10095000F0E08491882399F090E0880F991FFC01C2
:10096000EE58FF4FA591B491FC01E859FF4F8591D6
:1009700094918FB7F894EC91E22BEC938FBF82EBBC
:1009800091E0909311018093100180916900836040
:1009900080936900E89A80915B01882309F4E0C0A4
:1009A00060911401709115018091160190911701C9
:1009B0000E941B079B01AC0160EC71EE84E69BE496
:1009C0000E9478066B017C014B015C019B01AC012C
:1009D0000E943D08882319F086E391E01AC02601A1
:1009E0003701E89477F82FEF3FEF4FE75FE7C30158
:1009F000B2010E943D0881110FC02FEF3FEF4FE77A
:100A00005FE7C301B2010E94730618162CF48AE353
:100A100091E00E94FD02A0C02FEF3FEF4FE75FE49F
:100A2000C701B6010E94CB0718161CF48EE391E0B3
:100A3000F0CF2FEF3FEF4FE75FECC701B6010E9409
:100A4000730687FDF3CF20E030E0A901C701B601AE
:100A50000E94730687FF0BC06DE28CE591E00E9457
:100A6000140146015701B7FAB094B7F8B0942AE0E0
:100A700037ED43EA5BE3C501B4010E9407066B0151
:100A80007C010E94EA064B015C010E9419079B0150
:100A9000AC01C701B6010E9406062B013C0119A258
:100AA0007E01F1E2EF0EF11C0E2DDF2CC501B40129
:100AB0002AE030E040E050E00E94420849015A013B
:100AC000605DF70162937F01232B242B252B71F7A7
:100AD000CF010E94FD026EE28CE591E00E941401BC
:100AE00013E01150C9F120E030E040E251E4C301CD
:100AF000B2010E94D0074B015C010E94EA069B01F3
:100B000040E050E019A2E02EFD2C562E632E742EEC
:100B1000C52ECA01B9012AE030E040E050E00E9451
:100B20004208605DF70162937F012115310541059F
:100B3000510579F7CF010E94FD02652D762D872D95
:100B40009C2D0E9419079B01AC01C501B4010E94B4
:100B500006062B013C01C5CF82E491E00E94FD0214
:100B60000E948D016B017C0184E6882E912CA12CC2
:100B7000B12C0E948D01DC01CB018C199D09AE09BD
:100B8000BF09883E9340A105B10598F3F1E08F1AA3
:100B90009108A108B10828EEC20E23E0D21EE11C84
:100BA000F11C81149104A104B10419F70E9483017E
:100BB000F2CEECE5F1E01382128288EE93E0A0E041
:100BC000B0E084839583A683B78388E291E0918324
:100BD000808385EC90E09587848784EC90E097870C
:100BE000868780EC90E0918B808B81EC90E0938BFA
:100BF000828B82EC90E0958B848B86EC90E0978BD7
:100C0000868B118E128E138E148E08955058BB272A
:100C1000AA270E941E060C9491070E94830738F0B1
:100C20000E948A0720F039F49F3F19F426F40C94AF
:100C300080070EF4E095E7FB0C947A07E92F0E94F9
:100C4000A20758F3BA17620773078407950720F0C5
:100C500079F4A6F50C94C4070EF4E0950B2EBA2F88
:100C6000A02D0B01B90190010C01CA01A0011124B2
:100C7000FF27591B99F0593F50F4503E68F11A165E
:100C8000F040A22F232F342F4427585FF3CF4695EF
:100C900037952795A795F0405395C9F77EF41F1611
:100CA000BA0B620B730B840BBAF09150A1F0FF0FDB
:100CB000BB1F661F771F881FC2F70EC0BA0F621FC7
:100CC000731F841F48F4879577956795B795F795B7
:100CD0009E3F08F0B0CF9395880F08F09927EE0F4C
:100CE0009795879508950E94560708F481E0089526
:100CF0000E948C060C9491070E948A0758F00E946B
:100D0000830740F029F45F3F29F00C947A075111D2
:100D10000C94C5070C9480070E94A20768F39923DE
:100D2000B1F3552391F3951B550BBB27AA276217E7
:100D30007307840738F09F5F5F4F220F331F441FF4
:100D4000AA1FA9F335D00E2E3AF0E0E832D0915028
:100D50005040E695001CCAF72BD0FE2F29D0660F15
:100D6000771F881FBB1F261737074807AB07B0E858
:100D700009F0BB0B802DBF01FF2793585F4F3AF05E
:100D80009E3F510578F00C947A070C94C5075F3F9D
:100D9000E4F3983ED4F3869577956795B795F795E4
:100DA0009F5FC9F7880F911D9695879597F90895CC
:100DB000E1E0660F771F881FBB1F62177307840768
:100DC000BA0720F0621B730B840BBA0BEE1F88F777
:100DD000E09508950E94AA0788F09F5798F0B92FD0
:100DE0009927B751B0F0E1F0660F771F881F991F60
:100DF0001AF0BA95C9F714C0B13091F00E94C40737
:100E0000B1E008950C94C407672F782F8827B85F46
:100E100039F0B93FCCF3869577956795B395D9F7B7
:100E20003EF490958095709561957F4F8F4F9F4FC1
:100E30000895E89409C097FB3EF4909580957095CD
:100E400061957F4F8F4F9F4F9923A9F0F92F96E916
:100E5000BB279395F695879577956795B795F1118B
:100E6000F8CFFAF4BB0F11F460FF1BC06F5F7F4F28
:100E70008F4F9F4F16C0882311F096E911C077233A
:100E800021F09EE8872F762F05C0662371F096E843
:100E9000862F70E060E02AF09A95660F771F881F12
:100EA000DAF7880F9695879597F90895990F0008B6
:100EB000550FAA0BE0E8FEEF16161706E807F9072C
:100EC000C0F012161306E407F50798F0621B730BC7
:100ED000840B950B39F40A2661F0232B242B252B48
:100EE00021F408950A2609F4A140A6958FEF811DEB
:100EF000811D089597F99F6780E870E060E008958C
:100F00009FEF80EC089500240A9416161706180621
:100F10000906089500240A941216130614060506FD
:100F20000895092E0394000C11F4882352F0BB0F8E
:100F300040F4BF2B11F460FF04C06F5F7F4F8F4FF1
:100F40009F4F089557FD9058440F551F59F05F3F2C
:100F500071F04795880F97FB991F61F09F3F79F0DB
:100F600087950895121613061406551FF2CF46955D
:100F7000F1DF08C0161617061806991FF1CF8695DF
:100F80007105610508940895E894BB2766277727C3
:100F9000CB0197F908950E94560708F48FEF089542
:100FA0000E94E3070C9491070E94830738F00E9487
:100FB0008A0720F0952311F00C947A070C9480078F
:100FC00011240C94C5070E94A20770F3959FC1F3EA
:100FD000950F50E0551F629FF001729FBB27F00DE7
:100FE000B11D639FAA27F00DB11DAA1F649F66273C
:100FF000B00DA11D661F829F2227B00DA11D621F8B
:10100000739FB00DA11D621F839FA00D611D221F44
:10101000749F3327A00D611D231F849F600D211D28
:10102000822F762F6A2F11249F5750409AF0F1F0AB
:1010300088234AF0EE0FFF1FBB1F661F771F881F14
:1010400091505040A9F79E3F510580F00C947A07CB
:101050000C94C5075F3FE4F3983ED4F386957795EB
:101060006795B795F795E7959F5FC1F7FE2B880FBA
:10107000911D9695879597F908950E945607880BBC
:10108000990B0895A1E21A2EAA1BBB1BFD010DC0EE
:10109000AA1FBB1FEE1FFF1FA217B307E407F50728
:1010A00020F0A21BB30BE40BF50B661F771F881F04
:1010B000991F1A9469F760957095809590959B019A
:1010C000AC01BD01CF010895052E97FB1EF40094DD
:1010D0000E947B0857FD07D00E94420807FC03D0FE
:1010E0004EF40C947B0850954095309521953F4FD8
:1010F0004F4F5F4F089590958095709561957F4F04
:101100008F4F9F4F08950E949C08A59F900DB49FFC
:10111000900DA49F800D911D11240895B7FF0C948C
:1011200083080E948308821B930B0895EE0FFF1F14
:101130000590F491E02D0994A29FB001B39FC001E6
:10114000A39F700D811D1124911DB29F700D811DF3
:101150001124911D089581E090E0F8940C94B0085A
:04116000F894FFCF31
:1011640040420F0040420F0040420F0040420F0037
:10117400FC02FC0240420F0040420F0040420F00BC
:1011840040420F000000000014017D00AB0061012B
:10119400DC00BA00CE006E616E00696E66006F7688
:0611A40066000D0A0000C8
:107800000C94343C0C94513C0C94513C0C94513CE1
:107810000C94513C0C94513C0C94513C0C94513CB4
:107820000C94513C0C94513C0C94513C0C94513CA4
:107830000C94513C0C94513C0C94513C0C94513C94
:107840000C94513C0C94513C0C94513C0C94513C84
:107850000C94513C0C94513C0C94513C0C94513C74
:107860000C94513C0C94513C11241FBECFEFD8E036
:10787000DEBFCDBF11E0A0E0B1E0ECE9FFE702C060
:1078800005900D92A230B107D9F712E0A2E0B1E065
:1078900001C01D92AD30B107E1F70E942D3D0C945F
:1078A000CC3F0C94003C982F959595959595959582
:1078B000905D8F708A307CF0282F295A8091C0000B
:1078C00085FFFCCF9093C6008091C00085FFFCCF60
:1078D0002093C6000895282F205DF0CF982F809127
:1078E000C00085FFFCCF9093C6000895EF92FF92F1
:1078F0000F931F93EE24FF2487018091C00087FD22
:1079000017C00894E11CF11C011D111D81E4E8164B
:1079100082E4F8068FE0080780E0180770F3E09132
:107920000401F091050109958091C00087FFE9CF1E
:107930008091C6001F910F91FF90EF9008950E94D3
:10794000763C982F8091C00085FFFCCF9093C600B5
:1079500091362CF490330CF09053892F089597555D
:10796000892F08951F930E949F3C182F0E949F3CCF
:107970001295107F810F1F9108951F93182F882350
:1079800021F00E94763C1150E1F71F9108951F935A
:10799000182F0E94763C803249F0809103018F5F5E
:1079A000809303018530C1F01F9108958091C0003C
:1079B00085FFFCCF84E18093C6008091C00085FFE5
:1079C000FCCF1093C6008091C00085FFFCCF80E102
:1079D0008093C6001F910895E0910401F091050184
:1079E00009951F9108950E94763C803241F0809164
:1079F00003018F5F80930301853081F008958091AA
:107A0000C00085FFFCCF84E18093C6008091C00058
:107A100085FFFCCF80E18093C6000895E0910401CA
:107A2000F09105010995089540E951E08823A1F0FE
:107A30002D9A28EE33E0FA013197F1F721503040CA
:107A4000D1F72D9828EE33E0FA013197F1F7215064
:107A50003040D1F7815061F708953F924F925F9285
:107A60006F927F928F929F92AF92BF92CF92DF924E
:107A7000EF92FF920F931F93CF93DF93000080E16B
:107A80008093C4001092C50088E18093C10086E015
:107A90008093C2005098589A259A81E00E94143D24
:107AA00024E1F22E9EE1E92E85E9D82E0FE0C02ECA
:107AB00010E1B12EAA24A394B1E49B2EA6E58A2E50
:107AC000F2E57F2EE0E26E2E79E4572E63E5462E36
:107AD00050E5352E0E94763C8033B1F18133B9F107
:107AE000803409F46FC0813409F476C0823409F41B
:107AF00085C0853409F488C0803531F1823521F1A3
:107B0000813511F1853509F485C0863509F48DC0BC
:107B1000843609F496C0843709F403C1853709F423
:107B200072C1863709F466C0809103018F5F80932C
:107B30000301853079F6E0910401F0910501099582
:107B40000E94763C803351F60E94F33CC3CF0E94E2
:107B5000763C803249F78091C00085FFFCCFF092DF
:107B6000C6008091C00085FFFCCF9092C600809136
:107B7000C00085FFFCCF8092C6008091C00085FFC9
:107B8000FCCF7092C6008091C00085FFFCCF609250
:107B9000C6008091C00085FFFCCF5092C600809146
:107BA000C00085FFFCCF4092C6008091C00085FFD9
:107BB000FCCF3092C6008091C00085FFFCCFB09210
:107BC000C60088CF0E94763C863808F4BDCF0E945C
:107BD000763C0E94F33C7ECF0E94763C803809F4CC
:107BE0009CC0813809F40BC1823809F43CC1883942
:107BF00009F48FC080E00E94C73C6CCF84E10E94F2
:107C0000BD3C0E94F33C66CF85E00E94BD3C0E94D3
:107C1000F33C60CF0E94763C809306010E94763C44
:107C2000809307010E94F33C55CF0E94763C80333D
:107C300009F41DC183E00E94BD3C80E00E94C73C66
:107C400049CF0E94763C809309020E94763C809343
:107C5000080280910C028E7F80930C020E94763C79
:107C6000853409F415C18091080290910902892B8D
:107C700089F000E010E00E94763CF801E85FFE4FDA
:107C800080830F5F1F4F80910802909109020817AF
:107C9000190788F30E94763C803209F045CF809125
:107CA0000C0280FF01C16091060170910701660F0F
:107CB000771F7093070160930601A0910802B091AD
:107CC00009021097C9F0E8E0F1E09B01AD014E0F09
:107CD0005F1FF999FECF32BD21BD819180BDFA9A17
:107CE000F99A2F5F3F4FE417F50799F76A0F7B1F4B
:107CF00070930701609306018091C00085FFFCCF5F
:107D0000F092C6008091C00085FFFCCFB092C60003
:107D1000E1CE83E00E94C73CDDCE82E00E94C73CFA
:107D2000D9CE0E94763C809309020E94763C8093D3
:107D300008028091060190910701880F991F909386
:107D40000701809306010E94763C853409F4A6C0A1
:107D500080910C028E7F80930C020E94763C8032D0
:107D600009F0B8CE8091C00085FFFCCFF092C6002C
:107D7000609108027091090261157105B9F140E046
:107D800050E080910C02A82FA170B82FB27011C0E2
:107D9000BB2309F45CC0E0910601F0910701319624
:107DA000F0930701E09306014F5F5F4F46175707B7
:107DB000E8F4AA2369F3F999FECF209106013091E6
:107DC000070132BD21BDF89A90B58091C00085FFB2
:107DD000FCCF9093C6002F5F3F4F30930701209355
:107DE00006014F5F5F4F4617570718F38091C00099
:107DF00085FDE5CE8091C00085FFF8CFE0CE81E023
:107E00000E94C73C67CE0E94763C803209F08CCE3F
:107E10008091C00085FFFCCFF092C6008091C00029
:107E200085FFFCCFE092C6008091C00085FFFCCFAB
:107E3000D092C6008091C00085FFFCCFC092C600E2
:107E40008091C00085FFFCCFB092C60043CEE09188
:107E50000601F091070194918091C00085FFFCCF4D
:107E60009093C6009CCF80E10E94C73C33CE0E9415
:107E7000763C0E94763C182F0E94763C112309F430
:107E800083C0113009F484C08FE00E94C73C22CE29
:107E900080910C02816080930C02E5CE80910C02EF
:107EA000816080930C0259CF809107018823880F4D
:107EB000880B8A2180930B02809106019091070123
:107EC000880F991F90930701809306018091080203
:107ED00080FF09C080910802909109020196909359
:107EE000090280930802F894F999FECF1127E091D6
:107EF0000601F0910701C8E0D1E08091080290915D
:107F00000902103091F40091570001700130D9F34B
:107F100003E000935700E89500915700017001308D
:107F2000D9F301E100935700E89509901990009169
:107F3000570001700130D9F301E000935700E89534
:107F40001395103498F011270091570001700130FB
:107F5000D9F305E000935700E895009157000170B0
:107F60000130D9F301E100935700E895329602976A
:107F700009F0C7CF103011F00296E5CF112480919F
:107F8000C00085FFB9CEBCCE8EE10E94C73CA2CD19
:0C7F900085E90E94C73C9ECDF894FFCF0D
:027F9C00800063
:040000030000780081
:00000001FF
